:10000000F32B00308A000408840A820700343F344E
:1000100006345B344F3466346D347D3407347F34BA
:0E0020006F3480348834C034403403340434E8
:1003FC000134633405348312850130308316850053
:10040C009F01073083129900803083168100080009
:10041C00EF308312A0002008831685058312051285
:10042C002130A000A00B182A0800EF308312A00086
:10043C00200883168505831205122130A000A00B1D
:10044C00252A8316851621308312A000A00B2C2A96
:10045C008316051621308312A000A00B332A080046
:10046C0083122008210403193C2A3D2A6C2AA50179
:10047C00A50A4B2A01300310A00DA10DFF3E031D50
:10048C00412A0130A4002408A507A11F4E2A4F2A97
:10049C00402A21082302031D552A20082202031C8E
:1004AC00582A592A5F2A2008A2022108031CA303F8
:1004BC00A30201300310A10CA00CFF3E031D602A07
:1004CC000130A502031D6B2A6C2A4F2A2308A100B8
:1004DC002208A00008008312B201B30101222130CE
:1004EC008312AF00AF0B782A00308312A800A9004A
:1004FC003823F32201308312B2070318B30A0030F9
:10050C00B3073308A9003208A8003823003A0319AE
:10051C00902A912A802A06308312B1001330B00041
:10052C00AD30AF00AF0B982AB00B982AB10B982ABC
:10053C009F2AF32227308312330210300319320220
:10054C00031CA92AAA2A802AB201B301802A0028F6
:10055C008312A501A601200821040319B62AB72A83
:10056C00EE2AA701A70AC52A01300310A00DA10D80
:10057C00FF3E031DBB2A0130A4002408A707A11FBE
:10058C00C82AC92ABA2A01300310A50DA60DFF3EB0
:10059C00031DCA2A21082302031DD62A2008220281
:1005AC00031CD92ADA2AE12A2008A2022108031CFA
:1005BC00A303A302251401300310A10CA00CFF3ED1
:1005CC00031DE22A0130A702031DED2AEE2AC92AD7
:1005DC002608A1002508A00008008312A5010E2200
:1005EC00403081231B220E22C03081238312A701AD
:1005FC002708343E840083130008013E8400012048
:10060C00A6002508031D0B2B0C2B1C2B2708343E96
:10061C0084000008031D132B142B1C2B0330270202
:10062C000318192B1A2B252BA601252BA501A50A7E
:10063C0063302706031D232B242B252BA6172608F6
:10064C00812301308312A4002408A7070430270259
:10065C00031C312B322BFE2A1B220E228D308123C0
:10066C001B22080003308312AD00AE012E08343E6D
:10067C008400831380010130AA002A08AE070430DD
:10068C002E02031C4A2B4B2B3C2B792BAD1B4F2BD7
:10069C00502B772B0A30A0000030A1002908A300B2
:1006AC002808A200362283122108AC002008AB00D7
:1006BC002D08343E84002B08831380000A30A000E0
:1006CC000030A1002908A3002808A200AE22831242
:1006DC002108A9002008A800FF30AA002A08AD07AD
:1006EC00792BA801A90128082904031D7E2B7F2B37
:1006FC004C2B013008008312A200A301DF30A000B4
:10070C00200883168505831285122130A000A00BCA
:10071C008D2B8312221C932B942B972B831605164F
:10072C009E2BEF30A000200883168505831205123E
:10073C0021308312A000A00BA12B83122208A00051
:10074C000310200CA2008316851621308312A00002
:10075C00A00BAE2B01308312A0002008A307083099
:10076C002302031CBA2BBB2B842BDF30A0002008E8
:10077C0083168505831285128316051683120512BE
:10078C002130A000A00BC82B8316851621308312B4
:10079C00A000A00BCF2B00308312051A0130A10052
:1007AC002108031DDA2BDB2BE22BEF30A0002008F5
:1007BC0083168505831205122130A000A00BE42BB3
:1007CC00DF308312A0002008831685058312851262
:1007DC002130A000A00BF02B0800FE21B800FF2157
:1007EC00B9000022BA00B401B501B601B70183010A
:0207FC00712A60
:08400000FF3FFF3FFF3FFF3FC0
:02400E00C431BB
:00000001FF
