:020000000B28CB
:10000800DE00030E8312A1000A08A200592B0C2857
:100018008723CE008823CF008923D000C401C501DF
:10002800C601C701C801C901CA01CB01CC01CD0174
:100038008301F7288312A500A601DF30A300230857
:1000480083168505831285122130A300A30B2A2865
:100058008312251C302831283428831605163B289E
:10006800EF30A3002308831685058312051221307B
:100078008312A300A30B3E2883122508A3000310B4
:10008800230CA5008316851621308312A300A30B29
:100098004B2801308312A3002308A6070830260244
:1000A800031C572858282128DF30A300230883166B
:1000B80085058312851283160516831205122130D1
:1000C800A300A30B65288316851621308312A3008D
:1000D800A30B6C2800308312051A0130A4002408F1
:1000E800031D772878287F28EF30A300230883167C
:1000F8008505831205122130A300A30B8128DF3068
:100108008312A300230883168505831285122130E4
:10011800A300A30B8D28080083161E088312B200C3
:10012800B3013208B8003308B9001E08B200B301A1
:100138003208B300B2013208B8043308B9043808E9
:10014800A3003908A400A501A6010030AA000030C8
:10015800A9001330A8008830A700F52183122608CB
:10016800BD002508BC002408BB002308BA00FF30E6
:100178003A05B40003303B05B50000303C05B60035
:1001880000303D05B7000A300310BD0CBC0CBB0C99
:10019800BA0CFF3E031DC8283708031DE22836089D
:1001A800031DE22802303502031DDE280130340227
:1001B800031DDE28031CE128E228F1280130831200
:1001C800BA07003003180130BB07003003180130AC
:1001D800BC07003003180130BD0783123B08B1008B
:1001E8003A08B00008008312C001C1012130BE00E6
:1001F800BE0BFC28FF228312C801CF010030AB00E0
:10020800AC00AD215A218312CC01CD011014831208
:100218004D080319102911291A290130BE003E087A
:10022800CC070130BE003E08CA07CD010A304C0297
:10023800031C1F2920293F29CC01CB01CB0A3F29C8
:100248009F140230CB00CA01C901C90A52299F1A5A
:100258002E292F295229902083123108C3003008F3
:10026800C2004308AC004208AB00AD2181225A21EC
:100278008312CB0152294B08BE00BF013F08003A48
:100288000319472952293E08003A03195229013A0D
:1002980003192429033A03192B2952294908031958
:1002A800562957290B297B230B290B288312480829
:1002B80003195F296129013062290030A8006E23E3
:1002C80040301E2024236E23C0301E208312AA0132
:1002D8002A08443E840083130008013E84003F231B
:1002E800A9002808031D79297A298A292A08443E61
:1002F80084000008031D812982298A2903302A02E3
:100308000318872988299329A9019329A801A80AEC
:100318002A084F06031D912992299329A91703300A
:100328002A02031C982999299A29A90129081E201B
:1003380001308312A7002708AA0704302A02031CE9
:10034800A629A7296C2924236E238D301E20242357
:10035800080003308312B000B1013108443E840024
:10036800831380010130AD002D08B107043031023C
:10037800031CBF29C029B129EE29B01BC429C529EE
:10038800EC290A30A3000030A4002C08A6002B0892
:10039800A500C42283122408AF002308AE00300849
:1003A800443E84002E08831380000A30A3000030E6
:1003B800A4002C08A6002B08A5003C2283122408C0
:1003C800AC002308AB00FF30AD002D08B007EE29C4
:1003D800AB01AC012B082C04031DF329F429C12916
:1003E800080000308312AF000030AE000030AD00CE
:1003F8000030AC00231C012A022A192A2708AC075E
:10040800280803110318013E03190B2AAD07290810
:1004180003110318013E0319122AAE072A08031113
:100428000318013E0319192AAF070130AB00031066
:10043800A70DA80DA90DAA0DAB0B1B2A013003109F
:10044800A60CA50CA40CA30CFF3E031D232A26080A
:10045800250424042304031D322A332AFE292F08E5
:10046800A6002E08A5002D08A4002C08A30008004B
:100478008312A801A901230824040319442A452A40
:100488007C2AAA01AA0A532A01300310A30DA40D3D
:10049800FF3E031D492A0130A7002708AA07A41F09
:1004A800562A572A482A01300310A80DA90DFF3EE5
:1004B800031D582A24082602031D642A230825023E
:1004C800031C672A682A6F2A2308A5022408031C2C
:1004D800A603A602281401300310A40CA30CFF3EA7
:1004E800031D702A0130AA02031D7B2A7C2A572A81
:1004F8002908A4002808A30008008312A4010330D7
:10050800A50003302506031D8A2A8B2A9B2A250865
:10051800443E8400063083130002031C942A952A63
:10052800972AA401A40A2508443E840080012508CE
:10053800803A7D3E0318A12AA22ABB2A2408A300D8
:100548002508443E84002308831380072508443E79
:1005580084000A300002031CB22AB32ABA2A2508EA
:10056800443E84008001A401A40ABB2AA401FF30F0
:10057800A3002308A507A51FC22AC32A852A0800A5
:100588008312230824040319CA2ACB2AFA2AA801A9
:10059800A80AD92A01300310A30DA40DFF3E031D9C
:1005A800CF2A0130A7002708A807A41FDC2ADD2AC4
:1005B800CE2A24082602031DE32A23082502031C49
:1005C800E62AE72AED2A2308A5022408031CA60325
:1005D800A60201300310A40CA30CFF3E031DEE2A53
:1005E8000130A802031DF92AFA2ADD2A2608A400E8
:1005F8002508A30008008312850130308316850082
:100608000514073083129900103083169F001F14B9
:10061800813083129F001F08900110161015FF30BB
:100628008E0020308F00013083168C00FE3083123C
:10063800A30023088C05C030A30023088B040800FE
:10064800EF308312A3002308831685058312051251
:100658002130A300A30B2E2B83168516213083127D
:10066800A300A30B352B8316051621308312A30094
:10067800A30B3C2B080003308A000408840A820775
:1006880000343F3406345B344F3466346D347D3483
:1006980007347F346F3480348834C03440340034B5
:1006A800013488341334033404340C1C5C2B5D2B64
:1006B800672BFE30A00020088C0520308F00FF300B
:1006C8008E000130CD0022088A00210E8300DE0E44
:1006D8005E0E0900EF308312A300230883168505F8
:1006E800831205122130A300A30B782B0800831274
:1006F8004A084902031C812B822B842B0515862B63
:0C0708000511C9010800033463340534F6
:08400000FF3FFF3FFF3FFF3FC0
:02400E00C431BB
:00000001FF
